:020000040000fa
:080000000002040000000000f2
:020000040000fa
:040008008e05000061
:020000040000fa
:04000c00d00500001b
:020000040000fa
:0400100010060000d6
:020000040000fa
:04001400ae05000035
:020000040000fa
:04001800f0050000ef
:020000040000fa
:04001c00ea080000ee
:020000040000fa
:0400200030060000a6
:020000040000fa
:04002400ea080000e6
:020000040000fa
:04002800ea080000e2
:020000040000fa
:04002c00d6070000f3
:020000040000fa
:04003000ea080000da
:020000040000fa
:04003400ea080000d6
:020000040000fa
:04003800ea080000d2
:020000040000fa
:04003c00ea080000ce
:020000040000fa
:04004000de060000d8
:020000040000fa
:04004400ea080000c6
:020000040000fa
:04004800ea080000c2
:020000040000fa
:04004c00ea080000be
:020000040000fa
:04005000ea080000ba
:020000040000fa
:04005400660300003f
:020000040000fa
:04005800060300009b
:020000040000fa
:04005c00ea080000ae
:020000040000fa
:04006000ea080000aa
:020000040000fa
:04006400a6040000ee
:020000040000fa
:04006800ea080000a2
:020000040000fa
:04006c00ea0800009e
:020000040000fa
:04007000ea0800009a
:020000040000fa
:04007400ea08000096
:020000040000fa
:04007800de040000a2
:020000040000fa
:04007c00ea0800008e
:020000040000fa
:04008000ea0800008a
:020000040000fa
:04008400ea08000086
:020000040000fa
:04008800ea08000082
:020000040000fa
:04008c00ea0800007e
:020000040000fa
:040090003605000031
:020000040000fa
:04009400ea08000076
:020000040000fa
:04009800ea08000072
:020000040000fa
:04009c00ea0800006e
:020000040000fa
:0400a000ea0800006a
:020000040000fa
:0400a400ea08000066
:020000040000fa
:0400a800ea08000062
:020000040000fa
:0400ac00ea0800005e
:020000040000fa
:0400b000ea0800005a
:020000040000fa
:0400b400ea08000056
:020000040000fa
:0400b800ea08000052
:020000040000fa
:0400bc00ea0800004e
:020000040000fa
:0400c000ea0800004a
:020000040000fa
:0400c400ea08000046
:020000040000fa
:0400c800ea08000042
:020000040000fa
:0400cc00ea0800003e
:020000040000fa
:0400d000ea0800003a
:020000040000fa
:0400d400ea08000036
:020000040000fa
:0400d800ea08000032
:020000040000fa
:0400dc00ea0800002e
:020000040000fa
:0400e000ea0800002a
:020000040000fa
:0400e400ea08000026
:020000040000fa
:0400e8008a06000084
:020000040000fa
:0400ec00ea0800001e
:020000040000fa
:0400f000ea0800001a
:020000040000fa
:0400f400ea08000016
:020000040000fa
:0400f800ea08000012
:020000040000fa
:0400fc00ea0800000e
:020000040000fa
:04010000ea08000009
:020000040000fa
:04010400ea08000005
:020000040000fa
:04010800ea08000001
:020000040000fa
:04010c00ea080000fd
:020000040000fa
:04011000ea080000f9
:020000040000fa
:04011400ea080000f5
:020000040000fa
:04011800ea080000f1
:020000040000fa
:04011c00ea080000ed
:020000040000fa
:04012000ea080000e9
:020000040000fa
:04012400ea080000e5
:020000040000fa
:04012800ea080000e1
:020000040000fa
:04012c00ea080000dd
:020000040000fa
:04013000ea080000d9
:020000040000fa
:04013400ea080000d5
:020000040000fa
:04013800ea080000d1
:020000040000fa
:04013c00ea080000cd
:020000040000fa
:04014000ea080000c9
:020000040000fa
:04014400ea080000c5
:020000040000fa
:04014800ea080000c1
:020000040000fa
:04014c00ea080000bd
:020000040000fa
:04015000ea080000b9
:020000040000fa
:04015400ea080000b5
:020000040000fa
:04015800ea080000b1
:020000040000fa
:04015c00ea080000ad
:020000040000fa
:04016000ea080000a9
:020000040000fa
:04016400ea080000a5
:020000040000fa
:04016800ea080000a1
:020000040000fa
:04016c00ea0800009d
:020000040000fa
:04017000ea08000099
:020000040000fa
:04017400ea08000095
:020000040000fa
:04017800ea08000091
:020000040000fa
:04017c00ea0800008d
:020000040000fa
:04018000ea08000089
:020000040000fa
:04018400ea08000085
:020000040000fa
:04018800ea08000081
:020000040000fa
:04018c00ea0800007d
:020000040000fa
:04019000ea08000079
:020000040000fa
:040194002608000039
:020000040000fa
:0401980088080000d3
:020000040000fa
:04019c00ea0800006d
:020000040000fa
:0401a000ea08000069
:020000040000fa
:0401a400ea08000065
:020000040000fa
:0401a800ea08000061
:020000040000fa
:0401ac00ea0800005d
:020000040000fa
:0401b000ea08000059
:020000040000fa
:0401b400ea08000055
:020000040000fa
:0401b800ea08000051
:020000040000fa
:0401bc00ea0800004d
:020000040000fa
:0401c000ea08000049
:020000040000fa
:0401c400ea08000045
:020000040000fa
:0401c800ea08000041
:020000040000fa
:0401cc00ea0800003d
:020000040000fa
:0401d000ea08000039
:020000040000fa
:0401d400ea08000035
:020000040000fa
:0401d800ea08000031
:020000040000fa
:0401dc00ea0800002d
:020000040000fa
:0401e000ea08000029
:020000040000fa
:0401e400ea08000025
:020000040000fa
:0401e800ea08000021
:020000040000fa
:0401ec00ea0800001d
:020000040000fa
:0401f000ea08000019
:020000040000fa
:0401f400ea08000015
:020000040000fa
:0401f800ea08000011
:020000040000fa
:0401fc00ea0800000d
:020000040000fa
:04020000ea08000008
:020000040000fa
:04020400ea08000004
:020000040000fa
:04020800ea08000000
:020000040000fa
:04020c00ea080000fc
:020000040000fa
:04021000ea080000f8
:020000040000fa
:04021400ea080000f4
:020000040000fa
:04021800ea080000f0
:020000040000fa
:04021c00ea080000ec
:020000040000fa
:04022000ea080000e8
:020000040000fa
:04022400ea080000e4
:020000040000fa
:04022800ea080000e0
:020000040000fa
:04022c00ea080000dc
:020000040000fa
:04023000ea080000d8
:020000040000fa
:04023400ea080000d4
:020000040000fa
:04023800ea080000d0
:020000040000fa
:04023c00ea080000cc
:020000040000fa
:04024000ea080000c8
:020000040000fa
:04024400ea080000c4
:020000040000fa
:04024800ea080000c0
:020000040000fa
:04024c00ea080000bc
:020000040000fa
:04025000ea080000b8
:020000040000fa
:04025400ea080000b4
:020000040000fa
:04025800ea080000b0
:020000040000fa
:04025c00ea080000ac
:020000040000fa
:04026000ea080000a8
:020000040000fa
:04026400ea080000a4
:020000040000fa
:04026800ea080000a0
:020000040000fa
:04026c00ea0800009c
:020000040000fa
:04027000ea08000098
:020000040000fa
:04027400ea08000094
:020000040000fa
:04027800ea08000090
:020000040000fa
:04027c00ea0800008c
:020000040000fa
:04028000ea08000088
:020000040000fa
:04028400ea08000084
:020000040000fa
:04028800ea08000080
:020000040000fa
:04028c00ea0800007c
:020000040000fa
:04029000ea08000078
:020000040000fa
:04029400ea08000074
:020000040000fa
:04029800ea08000070
:020000040000fa
:04029c00ea0800006c
:020000040000fa
:0402a000ea08000068
:020000040000fa
:0402a400ea08000064
:020000040000fa
:0402a800ea08000060
:020000040000fa
:0402ac00ea0800005c
:020000040000fa
:0402b000ea08000058
:020000040000fa
:0402b400ea08000054
:020000040000fa
:0402b800ea08000050
:020000040000fa
:0402bc00ea0800004c
:020000040000fa
:0402c000ea08000048
:020000040000fa
:0402c400ea08000044
:020000040000fa
:0402c800ea08000040
:020000040000fa
:0402cc00ea0800003c
:020000040000fa
:0402d000ea08000038
:020000040000fa
:0402d400ea08000034
:020000040000fa
:0402d800ea08000030
:020000040000fa
:0402dc00ea0800002c
:020000040000fa
:0402e000ea08000028
:020000040000fa
:0402e400ea08000024
:020000040000fa
:0402e800ea08000020
:020000040000fa
:0402ec00ea0800001c
:020000040000fa
:0402f000ea08000018
:020000040000fa
:0402f400ea08000014
:020000040000fa
:0402f800ea08000010
:020000040000fa
:0402fc00ea0800000c
:020000040000fa
:04030000ea08000007
:020000040000fa
:04030400ea08000003
:020000040000fa
:04030800ea080000ff
:020000040000fa
:04030c00ea080000fb
:020000040000fa
:04031000ea080000f7
:020000040000fa
:04031400ea080000f3
:020000040000fa
:04031800ea080000ef
:020000040000fa
:04031c00ea080000eb
:020000040000fa
:04032000ea080000e7
:020000040000fa
:04032400ea080000e3
:020000040000fa
:04032800ea080000df
:020000040000fa
:04032c00ea080000db
:020000040000fa
:100400004f1421000eff22000e01880000000000a2
:10041000000020000000e000020032000001200087
:1004200020028800140007006c0307000000e000b1
:1004300003003a0060112400010020000200370090
:100440000000200001002000810f70000100320038
:100450000f000700000020000000e0000200320052
:1004600000000200000000001a430200000000002b
:100470000040da000000fe00000220000000e00062
:1004800002003200002020009001880000000600d9
:10049000a1028800800478000000eb001f003700f4
:1004a000e284440054a0b4009905ba00e2844400f8
:1004b00054a0b4009906ba00e284440054a0b400e9
:1004c0000006eb00476fde00fd07b200ae018800ba
:1004d000636ce10003003a000ad801000000eb0061
:1004e0000e003700606ce10008003a00004deb00a0
:1004f0000a05e800020039003420ec000af0a000f0
:100500008b05e900f9ff3e00040037006168e10057
:10051000010032000086eb000b00070019c7ba008b
:100520001905ba000e04e00003003a000a00e000da
:10053000dbff3a0000000600fe07b200ae028800b2
:100540008a047800f5ff37000cd0a300e20f4d00bd
:100550001c003b0089027800354dba000a05e8000e
:10056000020039003420ec000af0a0008b05e900fd
:100570000f003200254dba000a05e80002003900dc
:100580003420ec000af0a0008b05e90008003200de
:100590000c00e0000600320015cdba000a05e800a4
:1005a000020039003420ec000af0a0008b05e900bd
:1005b0008984e80054a0b4000b00e000e2ff3a0098
:1005c000000006009902ba00055d78008b05e9007d
:1005d000f7ff3200c82ade00055d78008b05e900d0
:1005e000f3ff32000c00e000f1ff320019ddba0029
:1005f000eeff3700000000000000000000000000d7
:100600000000000000000000000000003600f800bc
:10061000809fbe00829fbe00849fbe00869fbe005a
:100620000000fa00608480000000e0000200320058
:1006300060848000000001004184800030848000dc
:10064000808f500002003a002188a900180037006e
:100650000188a90010003700408480009040780095
:100660008180fb00411288000000e800408488007f
:100670004184800050132100808f500002003a0016
:10068000c0122100408488004184800030848000b2
:10069000808f500005003200f01180007000600073
:1006a0000000e000ecff3200010037000000000015
:1006b0000080fa004f03be004f02be004f01be0093
:1006c0004f00be003600f900004006003600f8007a
:1006d000809fbe00829fbe00849fbe00869fbe009a
:1006e0000000fa000168a90004d0bf000004e00087
:1006f00004003a00201280000040780004f0b700a7
:100700008b003700410021009140780010c6b300f3
:1007100080cf50001e003a0010808000e40f50008f
:1007200007003c001080800021128000814078008a
:10073000e20b210000004100014878000a00370068
:1007400010808000e90f500007003c0010808000fe
:10075000650050002112800081407800320c210099
:100760000000410001487800108080000000e8008f
:100770001080880010808000ea0f50006c003a0062
:100780001000200090848800e019070068003700fe
:10079000410021009140780020c6b30080cf500076
:1007a00029003a0010808000e40f500007003c0050
:1007b000108080002112800081407800320c2100de
:1007c00000004100014878001500370010808000cb
:1007d000e90f500008003c001080800065005000c8
:1007e0002112800081407800c20c210000004100ed
:1007f000014878000a00370010808000eb0f50009d
:1008000007003c00108080006a0050002112800028
:1008100081407800420d210000004100014878002d
:10082000108080000000e8001080880010808000a8
:10083000ec0f50003e003a00300020009084880009
:10084000b21907003a0037004100210091407800ba
:1008500030c6b30080cf500029003a0010808000dd
:10086000e40f500007003c0010808000211280003f
:1008700081407800e20b210000004100014878002f
:100880001500370010808000e80f500008003c0081
:1008900010808000650050002112800081407800a7
:1008a000820c210000004100014878000a00370056
:1008b00010808000eb0f500007003c00108080008b
:1008c000690050002112800081407800120d210043
:1008d0000000410001487800108080000000e8001e
:1008e0001080880010808000ec0f500010003a004b
:1008f0002000200090848800841907000c00370035
:10090000410021009140780040c6b30080cf5000e4
:1009100007003200410021009140780050c6b3002a
:1009200080cf500002003a009230ef0077190700a4
:100930000080fa004f03be004f02be004f01be0010
:100940004f00be003600f900004006003600f800f7
:10095000809fbe00829fbe00849fbe00869fbe0017
:100960003200f8003400f80010002000a0018800d8
:100970000020200000d0fe000000fa00971e0700b3
:10098000b11807000630ef006000b800e081880071
:10099000f181880001e8a9000080fa003400f90024
:1009a0003200f9004f03be004f02be004f01be00ef
:1009b0004f00be003600f900004006003600f80087
:1009c000809fbe00829fbe00849fbe00869fbe00a7
:1009d0003200f8003400f80010002000a001880068
:1009e0000020200000d0fe000000fa00731e070067
:1009f000951807000630ef00a009210011c3b300cd
:100a000001487800b009210001c3b3000148780013
:100a1000c009210041c3b30001487800d00921007a
:100a2000e1c2b30001487800e009210001c3b3002e
:100a300001487800a009210073060700c0818800e2
:100a4000d18188000288a9000080fa003400f900f2
:100a50003200f9004f03be004f02be004f01be003e
:100a60004f00be003600f900004006003600f800d6
:100a7000809fbe00829fbe00849fbe00869fbe00f6
:100a80003200f8003400f80010002000a0018800b7
:100a90000020200000d0fe000000fa00471e0700e2
:100aa000691807000630ef00a009210011c3b30048
:100ab00001487800b009210091c3b30001487800d3
:100ac000c009210031c3b30001487800d0092100da
:100ad000e1c2b30001487800e009210001c3b3007e
:100ae00001487800a009210047060700c08188005e
:100af000d18188000348a9000080fa003400f90081
:100b00003200f9004f03be004f02be004f01be008d
:100b10004f00be003600f900004006003600f80025
:100b2000809fbe00829fbe00849fbe00869fbe0045
:100b30000000fa00c028a9000000eb00d61e070044
:100b40000080fa004f03be004f02be004f01be00fe
:100b50004f00be003600f900004006003600f800e5
:100b6000809fbe00829fbe00849fbe00869fbe0005
:100b70000000fa00cd1e0700c048a90010002000a8
:100b8000c51e07000080fa004f03be004f02be00e2
:100b90004f01be004f00be003600f90000400600c5
:100ba0003600f800809fbe00829fbe00849fbe007a
:100bb000869fbe000000fa00c068a9002000200047
:100bc000b51e07000080fa004f03be004f02be00b2
:100bd0004f01be004f00be003600f9000040060085
:100be0003600f800809fbe00829fbe00849fbe003a
:100bf000869fbe000000fa00c088a90030002000d7
:100c0000a51e07000080fa004f03be004f02be0081
:100c10004f01be004f00be003600f9000040060044
:100c20003600f800809fbe00829fbe00849fbe00f9
:100c3000869fbe000000fa00c608a90070002000d0
:100c4000951e07000080fa004f03be004f02be0051
:100c50004f01be004f00be003600f9000040060004
:100c60003600f800809fbe00829fbe00849fbe00b9
:100c7000869fbe000000fa00214680000010200080
:100c8000008060000000e00003003200c508a900f9
:100c9000c0002000801e07002146800000002800c0
:100ca000008060000000e00003003200c5e8a900f9
:100cb00080002000781e07002146800000022000ee
:100cc000008060000000e00003003200c4a8a9001a
:100cd00090002000701e0700204680007000600019
:100ce0000000e00003003200c488a900a00020003a
:100cf000691e070020468000610060000000e000df
:100d000003003200c408a900b0002000621e0700e2
:100d1000ffff37003600f800809fbe00829fbe00b4
:100d2000849fbe00869fbe000000fa00ab1d070036
:100d3000c51707000630ef00300c21009040780006
:100d4000f009210001487800400c21009040780013
:100d5000000a210001487800500c210090407800e2
:100d6000100a210001487800600c210090407800b2
:100d7000200a210001487800700c21009040780082
:100d8000300a210001487800f00921009e05070083
:100d9000e0818800f1818800af1b07000608a900e8
:100da0000080fa004f03be004f02be004f01be009c
:100db0004f00be003600f900004006003600f80083
:100dc000809fbe00829fbe00849fbe00869fbe00a3
:100dd000881f78003200f8003400f800100020006e
:100de000a00188000020200000d0fe000000fa00d2
:100df000308080000000e800308088003080800073
:100e0000e10f400004003a00408080000000e8004c
:100e1000408088000630ef00308080006102b8001a
:100e2000408080008000eb000081eb008289b900e7
:100e3000e003b90086017800030141008081eb00e6
:100e40000300b80001014100820078000402400064
:100e500085824800508080006103b8006080800077
:100e60008000eb000081eb008289b900e004b9004a
:100e700088017800030141008081eb000300b80085
:100e80000101410082007800060040008780480090
:100e9000800f5200818f5a001d003a00471d070045
:100ea000691707000630ef000830ef000c30ef0044
:100eb000e00b210090407800a00921000148780053
:100ec000f00b210090407800b00921000148780023
:100ed000000c210090407800c009210001487800f2
:100ee000100c210090407800d009210001487800c2
:100ef000200c210090407800e00921000148780092
:100f0000a009210040050700c0818800d181880028
:100f100090848000e20f500019003a003180800078
:100f2000f083800000017800050009008280d8006d
:100f30008000fd000000e0000a003a00f08380001d
:100f4000cf00de00008040000080d10080007800eb
:100f5000308080000080400000848800238ea9003b
:100f60005b0ea80000848000800078003080800044
:100f7000808f500002003a00238ea8005b0ea9006b
:100f800000c8a9000080fa003400f9003200f9001e
:100f90004f0478004f03be004f02be004f01be0059
:100fa0004f00be003600f900004006003600f80091
:100fb000809fbe00829fbe00849fbe00869fbe00b1
:100fc0000000fa00018080008084800000804000e2
:100fd000008088000180800040062000808f500043
:100fe00004003a000030ef00411a07004a1b0700d6
:100ff00008cba800c1160700b08480000000e00004
:1010000002003200b084800000000100f0132100d3
:10101000104078008040e800f0132100014878007b
:10102000e013210011c0b300014878000028a90096
:101030000080fa004f03be004f02be004f01be0009
:101040004f00be003600f900004006003600f800f0
:10105000809fbe00829fbe00849fbe00869fbe0010
:10106000889fbe000000fa00606080002081880038
:10107000208180008000eb009c000700020020001f
:1010800003582400a00107000002be0060a48500f0
:1010900071a485000001be000400be0079020700b3
:1010a000308188004181880038818000498180003a
:1010b000a0a485008000eb008c0007000001be00aa
:1010c0000800be00900107000002be0080a4850059
:1010d00091a485000001be000400be008a01070043
:1010e00050818800618188000b68a90023cea80088
:1010f0000080fa004f04be004f03be004f02be0046
:101100004f01be004f00be003600f900004006004f
:101110003600f800809fbe00829fbe00849fbe0004
:10112000869fbe00889fbe000000fa0070608000ad
:1011300070818800708180008000eb006b000700e8
:1011400002002000035824006f0107000002be00c7
:1011500060a4850071a485000001be000400be00eb
:101160004802070080818800918188008881800082
:1011700099818000a0a485008000eb005b0007003f
:101180000001be000800be005f0107000002be00b3
:1011900080a4850091a485000001be000400be006b
:1011a00059010700a0818800b18188000b88a9003f
:1011b00023cea8000080fa004f04be004f03be00fb
:1011c0004f02be004f01be004f00be003600f900c6
:1011d000004006000040da000000fe0000000500ac
:1011e00014002000af033700f4ff2f00ad033700d9
:1011f0000001be00410007000470a70003f0a10039
:101200006509b100160032000d0035006828e100c4
:1012100006003500f0ff2f00f1ff27000300e0007b
:1012200013003b0001002800000005000000400002
:10123000818048008502e900fcff3a000800370081
:10124000f88f420002003c008000eb000000050027
:101250008100d1000080d3008502e800fcff3a0045
:101260000300e00002003b0060001000e080180076
:10127000000006000001be00200007000470a70067
:1012800003f0a10003f8a30013003a006509b100c0
:1012900010003200090035006928e1000200350025
:1012a0000100280000000500000040008180480087
:1012b0008502e900fcff3a0000000600f88f4200ba
:1012c000050035008100d1000080d3008502e800d0
:1012d000fcff3a00000006008000eb000000050063
:1012e0004f89de0082017800890337006011b80061
:1012f00097033700040020006a033700c70ade00a6
:10130000f107b200f50fb20008003200e1cf420051
:10131000020032000170a00024000500810f70005f
:10132000010032000408050044000500810f700030
:1013300002003a00140005008502e90000004000a8
:1013400081c04800fcff3b000170a00024000500a4
:1013500007f82700078361000638e10004003a001f
:10136000f7072000878361008703710001003a00be
:1013700003f0a200889fbe008a9fbe008c9fbe0023
:10138000470ade000480a100c71ade000580a10024
:10139000070028000785600087856100f70f20009f
:1013a0000720e1009e0032000728e1009c00320087
:1013b000010678000400e000b4003200f7072000c6
:1013c000878060000170a0000500e000c0003200ce
:1013d000f7072000878161000370a0000506520016
:1013e0000f003a000b50e1000b0032000308e1004f
:1013f00002003a000200e1007e00320002045000c8
:1014000083845800040031000001fd008101fd00cb
:101410008402fd008a05fd006044b8002100370009
:101420000520e10005003d000001fd008101fd00f7
:101430008402fd008a05fd00050652007a60e10085
:10144000050035000170a1004722dd008480700096
:101450008a807000630037006044b800ef026600c5
:1014600007ff2f00070666000500e00006003400b5
:10147000f08312008714dd000511de00071bdd007c
:10148000060171008519de007060e100050035007d
:101490000904780082047800030178008001eb00e1
:1014a000700656000b50e10003003a0002004000b5
:1014b000838048000400370060041400e0841c00ae
:1014c00002005800838058000188a3000600320003
:1014d0008100d1000080d3008984d3000884d30028
:1014e0000402e800270037000178a30025003a0035
:1014f0000100e000030032008186cf0069865600bb
:101500000a0037008c0020000000e00004003a00d0
:1015100009007800880478000004eb007002520093
:101520008086cf000d0646000c06e9007060e100e1
:1015300006003500800078000900780088047800f3
:101540000004eb0070065600700252000c00e00030
:101550000c0034008c08dd00f00316000703de00e9
:10156000868070000c00dd00074bde000600700076
:101570008c4cdd000743de00868474000c44dd00e3
:101580000c0252006120e100200035006101600082
:101590000700280087816400f7ff27008783640025
:1015a000070374000300e0000600320082037300aa
:1015b000040032000000e800e08048000188a30039
:1015c0000e003a00f70f20000720e1004a003d001e
:1015d0000170a1004722dd00810072008a80700046
:1015e0000000be004f06be004f05be004f04be0007
:1015f000000006006000b800faff37008100d1004b
:101600000080d3000402e800eeff370004017800f8
:1016100089017400a10107008a807000f1ff370082
:10162000f7010700070278000001fd008101fd00bd
:10163000f301070087027800850372000778a30092
:10164000040032000001fd008101fd0006020700d8
:10165000e4ff3700850362000768a300080032003a
:101660000b50e10003003200f0ff2f00f1ff2700d4
:10167000dcff37000001fd008101fd00d9ff3700cc
:101680000468a300d7ff3200faff3700f8ff2700f5
:10169000888360000b003a000000e00009003a0077
:1016a0008303640082837300020032000200be00e4
:1016b000ccff37000b50e100ceff3a000200be0025
:1016c000c8ff370014002000810064003eff37008f
:1016d000f8ff27008883610004003a000200e00060
:1016e00002003a008c007800beff37001500200091
:1016f0008301640039ff370001f827000000200053
:1017000081007500b7ff3700889fbe008a9fbe002a
:101710008c9fbe001b0020000202be0005866800f0
:1017200006002800060666004709de00f20fb20038
:10173000820032000243e80080003200c729de0048
:10174000f30fb2007d0032000343e8007b0032005b
:10175000f107b2000170a000f507b2000570a0000b
:10176000c708dd004903de00868070004700dd0009
:10177000c72add004923de00868272004722dd0091
:101780000305510004035000858358000300310015
:1017900000004000818048000a05e9008c1f7800a5
:1017a0008a9fbe0004005000858058000402420059
:1017b00085824a0000004000818048000005eb005f
:1017c0000004be006033b8000406be000d48e1000e
:1017d00056003100050009004dccd8000c01b800be
:1017e0000d02b8008481410060824a008283530068
:1017f00003045c0084845c0060055d000a00e00076
:1018000025003a00800578000d40e10049003100d4
:101810008800780007007800050009004d88d8008e
:101820000c01b8000d02b8008481410060824a00ba
:101830006003110083835b0004045c00e0845c00af
:101840000900e00021003a004f01be000300e00063
:101850002b003200e3016000070673008c817100e9
:1018600001003200640070004200de004e5edd00c8
:101870000c007000c258de0001e0a00083010700e8
:10188000cf017800818071004f06be004f05be0079
:101890004f04be00000006008c8343000d044c0082
:1018a000e0844c0060054d000000e9000a00e00003
:1018b000d4ff32008c8343000d044c00e0844c00c4
:1018c00060054d000000e900ceff37000c03430027
:1018d0008d834b0060044c00e0844c000000e90064
:1018e0000900e000d8ff32000c0343008d834b0059
:1018f00060044c00e0844c000000e900d2ff370097
:101900004200de004e5edd000c007000c258de00ba
:1019100001e0a000cf0178000300e000daff320010
:1019200060001000e0801800d7ff3700f0ff2f00a4
:10193000aaff3700f0ff2f00b9ff37000404be00f4
:101940002f010700870678000004fd008104fd00d8
:101950002b010700078366000678a300030032000e
:101960000960a7000800be002c0037000d78a30016
:10197000020032000800be00280037000778a300ec
:1019800026003a0001f0a10009f0a1000668a300ba
:1019900003003200f1ff2700f0ff2f00baff3700ed
:1019a0000d68a300030032000800be008c807000a8
:1019b000b5ff37000768a30007003a000648a300f8
:1019c00003003200f1ff2700f0ff2f00aeff3700c9
:1019d0000d48a300030032006000b8008c80700046
:1019e000a9ff37000748a3000400320001f82700d0
:1019f000000020008c807000a3ff370076010700f4
:101a00000004fd008104fd0002057800720107005a
:101a10000802be008a01780059ff37000160a0006b
:101a200012022000c284880097ff37000100e00006
:101a3000120032000500e00010003200889fbe0056
:101a40008a9fbe008c9fbe000006eb0001f8a30039
:101a50000300320060001000e08018000cf0a000cd
:101a600005f8a3000300320060021200e0821a00b1
:101a70000cf0a2008005eb0041ff37006000b800c9
:101a800002000500038368000700280007036300c5
:101a9000470ade000480a100c71ade000580a1000d
:101aa000f70f20000720e100420032000728e10084
:101ab00040003200889fbe008a9fbe008c1f7800c5
:101ac000f107b200f307b2000400e0006400320046
:101ad0000170a0000500e000680032000370a00063
:101ae00085054200eb07b1000204b8000302b8000c
:101af0008484440060854a00020ab800848444005b
:101b00000a854a00030ab8000405450004003300b2
:101b10000804d0008984d2000a85d2008b05e90030
:101b20006158e1003d00350002102000090161000c
:101b30000308200089816100f70720008783640083
:101b400008867300c84cde00c853dd00878474002b
:101b50004855de000300e0000600320082037600f4
:101b6000040032008904e80060054d000a88a300e3
:101b70000c003a00f70f20000758e10044003d0038
:101b80000a70a100c75ddd000a8575008a00730038
:101b9000090078004f0678004f05be004f04be00d4
:101ba000000006000a05d1008984d3008b05e800f7
:101bb000f0ff3700881f78000604780090000700c7
:101bc000070278000001fd008101fd008c00070084
:101bd00087027800850372000778a30005003200b1
:101be0000001fd008101fd009f0007004f04780007
:101bf00000000600850372000748a30003003200be
:101c0000f0ff2f00f1ff2700f8ff37000000200051
:101c100001f8270088807000f4ff37008801780001
:101c20004848dd00808171004848de00c850dd0072
:101c300001007000c850de00060478000b01780037
:101c40001600070088807000d2ff37000500e00012
:101c500005003200170020003a0007009dff370002
:101c600081037000f9ff3a00860078004f06780083
:101c70004f05be004f04be00000005008303710045
:101c8000f9ff3200270020002e00070094ff3700e4
:101c900001f8270086807000f4ff37000100e000a3
:101ca00026003200610111007810e10023003c00a1
:101cb0006022b8007010e100040035008002780056
:101cc000010078008000eb00700151000200e0008c
:101cd0000900340070031100062add00822ade00ac
:101ce0008603dd00878272000200de00860bdd00c5
:101cf000070070008208de0084817100f4ff270075
:101d000004826200848171000400280084826200e1
:101d10006102600005f0a600000006000482710068
:101d2000070032000000e800e080480000000600e4
:101d30000002be006000b800efff37006000b8008e
:101d400000000600889fbe000004eb006138e1003f
:101d500016003a000100e00008003a00c800de006a
:101d60004800dd00880020000100e00003003a0088
:101d7000c800de004800dd00680444008184cf0014
:101d8000e9845400060034008908dd00f083140063
:101d90008703de00878070000900dd00090444002d
:101da000610214004f04be00000006000300e000c2
:101db00008003a00c811de004811dd00880020004c
:101dc0000300e00003003a00c811de004811dd0006
:101dd000680444008384cf00e98454000600340082
:101de0008919dd00f08314008713de0087817100fc
:101df0000911dd0009044400e1021400e9ff370085
:101e00002700200001f0a70017002000470bde008c
:101e1000f60fb200040032000643e8000a00320068
:101e20004702b3000000060001037800f607b20085
:101e30000603700002003a000703b300000006002a
:101e40008702b3000000060001037800f607b20025
:101e500006037000020032000770a00000000600b8
:101e60000760a000000006000478a3000400320010
:101e70000578a300030032000168a30001003a00c6
:101e80000200be000160a000000006008101700099
:101e9000270032008002eb0001f8a30003003200ab
:101ea00060001000e080180015002000f4072000fa
:101eb0000202420020003400f70320008703600084
:101ec00006042000000363000208200000016100f6
:101ed0004700de00c909dd0000807100c708de0090
:101ee0000600e0000800320087037100060032009f
:101ef0001000b0000180b0000188a3000200320091
:101f0000c108de000402e800f107b200f30f200070
:101f10000320e10003003d004722dd008100720044
:101f20002900370001f827000000eb0026003700e9
:101f30006000b80000000600680212007f20e10087
:101f4000020034006000b8001f0037006011b800c4
:101f50007020e10004003500800178000100780065
:101f60008000eb00700252000400e0000900340021
:101f7000f00312000719dd008419de000703dd00fd
:101f8000868171000400de00070bdd000600700092
:101f90008408de00f7ff2700838363008703710056
:101fa0000600280003036300070032000700e0007a
:101fb00003003a00610160000281730002003200f8
:101fc0001000b0000180b0000500a600000006006f
:101fd00001f0a000000006004f0ade004709de0005
:101fe000f107b200f20fb2000b003200f207b100ad
:101ff0000170a000c708dd00c901de008380700009
:102000004700dd000400a60000000600600010008c
:10201000e080180000000600810f700001003a0007
:10202000000006008182cf000500e00010003e00a5
:102030008082cf00ee8242007028e1000400390067
:1020400007003e00800078000000eb000e00370023
:10205000708312008600de000500dd000a003700f4
:10206000708352008600dd000000eb0006003700a0
:10207000e28252008508dd00708312000603de0054
:10208000868070000500dd007507b0000501ea00dc
:102090000400a6000000060060001000e0801800a8
:1020a00000000600889fbe008a9fbe00841f780043
:1020b0007c0007004f00780011003300f0ff2f0074
:1020c000838f6c0006003b00040565000a00a70032
:1020d0000800370009f0a6001000200008003700b3
:1020e000820f5400838f5c00030039001000200031
:1020f00001003e000000200009f0a7000000ea00f7
:102100004f05be004f04be000000e00000000600c6
:10211000881f7800030478000300e00007003d00fa
:1021200060001000e080180060011900e0811900d3
:1021300002003b0001f02d000300370004000700ff
:1021400008f0a70001f0a0004f047800000006008e
:10215000889fbe008a9fbe0000827000040271004a
:1021600004827100260032000004be000200be009e
:102170006011b8006b092000950220000182cf0099
:102180000a0039000541b1000082cf000700390084
:102190000541b1000982cf00040039000541b100ba
:1021a0000882cf00010039000541b100054252000c
:1021b000120032000a003b0082817100610164005c
:1021c0008100d1000080d3008984d3000884d3002b
:1021d0008b05e8000442e800f7ff3a0007003700eb
:1021e0000804440089844c000000480081804800b5
:1021f0008b05e9000442e900f9ff3a0003000700fb
:102200004f05be004f04be00000006008100200004
:10221000618055000b003d000b00200061fe2f0087
:102220000100e1001d003400828171006101640041
:102230008904d1000884d3000000e800faff3a00c6
:102240007100200061006400030070000200600063
:102250000900320061044400e0844c000988a500b4
:10226000050032008b05e8006808e10002003a0032
:102270008904d1000884d300f20f20000258e10045
:1022800005003d00c75ddd00f907b20089807500db
:1022900008007800000006000bf827008b0078008b
:1022a000000005000004be0014fc07000003be008f
:1022b0000405be000200be0010fc0700844f75003c
:1022c000000006000400fa00889fbe008a9fbe003e
:1022d0008c9fbe000004be004708de00f00fb20075
:1022e00051092000810f500041003c000806be004b
:1022f000e00f5400e08f5c0003003d000805be00c5
:102300000bf0a200010037000805be00d107200035
:10231000810f50000a003c000200200003b024009e
:102320000a00be0013fc070080bf9f0091bf9f0002
:102330006011b8000800be00d2fd07002b00370076
:102340000200200003b024000a00be0009fc0700c0
:102350000200200003b02400fdfb07000a01be00bc
:10236000fbfb07000004be000200200003f0230076
:102370009dfb07000000e000070034000a01be00da
:102380000800be00fbfb07000200200003f823004a
:10239000effb07000f0037000200200003f02b00c6
:1023a0000800be008efb07000000e00006003c00b5
:1023b0000a01be000800be00eefb0700020020007c
:1023c00003f82300020037000a01be000800be0027
:1023d000e8fb0700e00f5600e08f5e0003003d00c1
:1023e0000004be0009f0a200010037000004be0096
:1023f0000800be004f06be004f05be004f04be00e1
:102400000080fa00000006008000eb004700370063
:1024100080007800040037003104e00002003a0038
:102420000000510000000600010178000108a3002f
:10243000f9ff3a008101780031017800f4ef2f00b4
:10244000020242000281ea00020162000408280040
:1024500004016100f7ff3200830078000101780079
:102460003104e000fdff3a000000510000000600ca
:102470003c00fa00889fbe008a9fbe000004be0098
:10248000020578000f0078004004b1001d0009002b
:102490000018eb0088a79f00d8af9f000080eb00da
:1024a000e0af9f006022b8006033b800c0fb2f008f
:1024b0000f00400015090700120020008a00780074
:1024c000c0fb2f000f004000fa0707006fb2970013
:1024d000ffb297000fbb97009fbb9700dfad97003f
:1024e0000fa597000900e000090032000a85550099
:1024f000cfd5de000402450085824d0006834d00e5
:1025000087834d000100320004044400880c7800e9
:102510004f05be004f04be000080fa000000060018
:102520000001eb00d2ff0700380a3700120020003c
:10253000cfff0700350a370022002000ccff37000c
:10254000800078001000200002022000828f5000de
:1025500004003200e9805000e48f50000100360092
:102560000000eb00000006000800fa00889fbe0093
:102570008a9fbe00000478008105780078089000ea
:10258000b8109000810f500003003100b084fb00b0
:10259000700c98000300370008007800000907005d
:1025a00080047800b0022000808f540004003200c4
:1025b0000005eb00d0022000808f54001b003a0081
:1025c000d982b20009f0a7008904ea008904e90071
:1025d0004f4dde0078089000b8109000810f500039
:1025e00003003100b084fb00700c9800030037003a
:1025f00008007800ea0807008004780000fd2f003a
:1026000009004000e90f5000080036000b00e00010
:1026100006003200381090000000e0000300320095
:10262000780890000000e900700c980000fd2f0071
:10263000090040008005eb00e90f50001300360050
:10264000381090000000e00072003200780890001e
:102650000000e900700c98006e003700ea59b900dc
:102660008005410078089000b8109000810f50005c
:1026700003003100b084fb00700c980003003700a9
:1026800008007800c60807008004780000fd2f00cd
:1026900009004000e90f500003003e00b1cc2000cb
:1026a000818f5500edff3400615ab900612bb900ec
:1026b00084bf9f0095bf9f00a6bf9f00b7bf9f002c
:1026c0001f003700a4002000050020006033b80080
:1026d0000fb897009fb897002fb99700bfb9970020
:1026e000310d0700cfcdde000082440081824d0015
:1026f00002834d0083834d000403b1000580b100c7
:102700000680b1000780b10084bf9f0095bf9f0085
:10271000a6bf9f00b7bf9f0078089000b810900038
:10272000810f500003003100b084fb00700c980052
:10273000030037000800780099080700800478003b
:1027400000fd2f0009004000e90f500017003e0077
:10275000d07a240011ae270042e12a007314200031
:102760000fba97009fba97002fbb9700bfbb970087
:102770000020e10001a8e10002b0e10003b8e1009f
:10278000d0ff34000900370078089000810f500016
:1027900003003100b084fb00700c98000300370088
:1027a000080078007e080700800478000903b10063
:1027b000b8109000e98f5400f3ff36000100e000ec
:1027c00003003200780890000000e900700c9800c7
:1027d0000a00e000160032006000b8006011b80086
:1027e0000fba97009fba97002fbb9700bfbb970007
:1027f000040250008582580006035900878359005f
:1028000084bf9f0095bf9f00a6bf9f00b7bf9f00da
:10281000070037006000b800020020000300280015
:1028200080bf9f0091bf9f00a2bf9f00b3bf9f00ca
:102830000fb897009fb897002fb99700bfb99700be
:102840004f05be004f04be000080fa0000000600e5
:102850000f04b000889fbe008a9fbe008c9fbe0000
:102860008e1f780000067800b1a79f00c29f9f00ce
:10287000a3a79f00b49f9f00fc0890003c1090000d
:10288000808f5000040031003180fb00710e9800f1
:102890000007eb000d0037000c007800400807002f
:1028a000fbff3700fc0890003c109000808f500028
:1028b000030031003180fb00710e980002003700e8
:1028c0000c007800360807001e00200001032000dd
:1028d000810f5000f3ff32006022b8006033b8006f
:1028e00094af9f00a5af9f00b6af9f00c7af9f00fa
:1028f0008002eb0095a79f00e1022000810f5000ad
:1029000023003a00fc0890003c109000808f50009b
:10291000050031003180fb00710e98006044b80062
:102920006055b800110037000c0078001c08070043
:10293000faff3700fc0890003c109000808f500098
:10294000030031003180fb00710e98000200370057
:102950000c0078001208070061045400e0845c0059
:1029600060055d00e0855d001e0020000103200081
:10297000810f5000efff320098af9f00a9af9f007a
:10298000baaf9f00cbaf9f001500200095a79f0016
:102990006022b8006033b800d4af9f00e5af9f005d
:1029a000f6af9f0087b79f008002eb00a59f9f00b6
:1029b0006022b8000600200007ff2300d49f9f007c
:1029c000e59f9f00f69f9f0087a79f006044b80087
:1029d0006055b8006033b800f6a79f0087af9f002e
:1029e00084003700e1022000810f50000e003a0001
:1029f0009fa397000700e0008b003a005fa89700b4
:102a0000efa897007fa997008fb1970090af9f0024
:102a1000a1af9f00b2af9f00c3af9f001100200085
:102a200091a79f006a00370091032000810f50009a
:102a3000030034000050a0009dfa2f00808646005d
:102a400070002000010020006011b8005faa97000c
:102a5000efaa97007fab97008fb397000020e100ab
:102a600001a8e10002b0e10003b8e1000c003c0065
:102a70007fa397008fab97004438dd00cc30de0099
:102a8000810070004430dd004feade000081460026
:102a900081014a00f2a79f0083af9f003f003700eb
:102aa000d0002000010020006011b8005faa97004c
:102ab000efaa97007fab97008fb397000020e1004b
:102ac00001a8e10002b0e10003b8e1001d003c00f4
:102ad0006022b8000600200007fb23005f989700e3
:102ae000ef9897007f9997008fa197000b0a070036
:102af0000002be000203be00d49f9f00e59f9f001e
:102b0000f69f9f0087a79f006168b900ba08070079
:102b10005f9a9700ef9a97007f9b97008fa397008b
:102b2000fe0907000002be000203be000800be004e
:102b30000a01be00ff0807000004be000205be0037
:102b4000160037000d00e00014003200af9a970025
:102b50000500e00011003a006022b80006002000e5
:102b600007fe23005f989700ef9897007f999700e2
:102b70008fa19700e90907000002be000203be0012
:102b80000800be000a01be00ea0807000004be00fb
:102b90000205be0016002000a69f9f005fa89700b8
:102ba000efa897007fa997008fb1970061004000c0
:102bb000e080480060014900e0814900d0af9f00fb
:102bc000e1af9f00f2af9f0083b79f001e0020007f
:102bd000fc0890003c109000808f500003003100f2
:102be0003180fb00710e9800020037000c00780065
:102bf0006b0707000dfd2f0080864600e98f560009
:102c000078ff3600800078000150a0001106b10066
:102c1000e58f500073ff3600e1022000810f500065
:102c200073ff320001003700e00220000e00e000d8
:102c30001e003a003c1090000000e000030032004b
:102c4000fc0890008100e900710e9800bf98970081
:102c50000100e0000e0032000000e000030032003e
:102c6000fc0890008100e900710e98001fa19700f8
:102c70000200e0000a0032000000e000080032001c
:102c80007c0890000000e900700e980004003700f6
:102c90006022b8006033b8000c0078001b07070002
:102ca000afa197006118b900510037001fa297002b
:102cb0000400e00016003a005faa9700efaa970010
:102cc0007fab97008fb3970094af9f00a5af9f0095
:102cd000b6af9f00c7af9f00110037007fa19700dc
:102ce0008fa997004418dd00cc10de008100700031
:102cf0004410dd00f0a79f0081af9f0061024200f9
:102d0000e0824a0060034b00e0834b00050037007f
:102d10005faa9700efaa97007fab97008fb3970049
:102d20008006780070002000010020006011b800cb
:102d30000020e10001a8e10002b0e10003b8e100d9
:102d4000e6ff34000d0078000050a00001072000cd
:102d5000810f500015003a00bf9897000c007800d2
:102d600001fe07006022b8000600200007002800ce
:102d70000400e1000588e1000690e1000798e10009
:102d800014003a00bf9997000300e00007003a00e2
:102d90006022b8006033b8000c007800db06070042
:102da0006000b8006011b8003c0137003c12900090
:102db0006000b8006011b8000400e00005003200b7
:102dc0007c0890000000e900700e98006000b800d8
:102dd0006011b8007fa297008faa9700e00f520001
:102de000e08f5a0007003a00afa297006128b900af
:102df0003bf907006011b80022fb0700df0707005e
:102e0000260137001faa9700afaa97003fab970093
:102e1000cfab970068025200e0825a0060035b006b
:102e2000e0835b002c0020000402d0008582d200e9
:102e30000683d2008783d2000c06e900faff3a002d
:102e40000402400085824800060349008783490048
:102e5000d4af9f00e5af9f00f6af9f0087b79f00fc
:102e6000cf9a97000500ea00cf80de006109b90023
:102e70005faa9700efaa97007fab97008fb39700e8
:102e80000020e10001a8e10002b0e10003b8e10088
:102e90000f00340020022000008a8800afa29700b3
:102ea0006128b900d4070700f4ff2f00f5ff2f00b9
:102eb000f6ff2f00f7fe270018090700f4ff2f0088
:102ec000f5ff2f00f6ff2f00f7fe27001a0037004e
:102ed0004f9b970067f92f0007004300cf80de006b
:102ee0006109b9005faa9700efaa97007fab97002e
:102ef0008fb397000020e10001a8e10002b0e100db
:102f000003b8e10039003d0020022000008a88005b
:102f1000afa297006128b900b70707006022b80088
:102f20000600200007012000fc0807006022b8000e
:102f30000600200007012000f8080700d70037002e
:102f40006022b8000600200007fe23000800be0033
:102f50000a01be00700707000c0646008d864e0071
:102f60000000e0000d00350061064600e0864e00de
:102f70006022b8000600200007ff23000800be0002
:102f80000a01be00e50707000002be000203be0002
:102f90000800be000a01be00040037000802be009f
:102fa0000a03be000800be000a01be00e1070700d8
:102fb0000004be000205be005fa89700efa89700be
:102fc0007fa997008fb1970061005000e080580002
:102fd00060015900e0815900d0af9f00e1af9f0030
:102fe000f2af9f0083b79f00020037007fa69700d3
:102ff0008fae9700e00f5600e08f5e00d0ff3d00df
:10300000fca79f008daf9f003fa29700cfa2de00dc
:10301000612bb90094af9f00a5af9f00b6af9f0092
:10302000c7af9f0000022000010020006011b8001f
:10303000cf9a97004faede00050250008c825800f8
:103040000c0359008c835900d49f9f00e59f9f007b
:10305000f69f9f0087a79f005fa89700efa89700a3
:103060007fa997008fb197000000420081804a003d
:1030700002014b0083814b00d0b79f00e1b79f0056
:10308000f2b79f0083bf9f001faa9700afaa9700c7
:103090003fab9700cfab97000020e10001a8e10013
:1030a00002b0e10003b8e10006003400dfaa970097
:1030b0004f9b9700068052000002b000b0a79f000f
:1030c0000b0033006000b8006011b80090af9f00a3
:1030d000a1af9f00b2af9f00c3af9f00400320008d
:1030e000bfa09700808f500038003c0002003700de
:1030f0000001eb00b2a79f0042052000bfa197008e
:10310000030151000000200001f823009d0d07007d
:103110000006be002fa297006120b9003607070005
:103120000002be000203be000c00be0094b79f0068
:10313000a5b79f00b2b79f00c7b79f000f07070052
:103140001fb29700afb297003fb39700cfb397007d
:10315000d00b07000002be000203be0094af9f0028
:10316000a5af9f00b6af9f00c7af9f00bfa297005b
:10317000ff8f520015003c006022b8006033b80099
:103180000800be000a01be00f70607000000e000cc
:103190000e0032006000b8007fa39700610063005a
:1031a000e00f5000e08f580008003a007fa697001b
:1031b0008fae970061064600e0864e00fca79f0098
:1031c0008daf9f006044b8006055b800afa697006f
:1031d0006168b900080707000002be000203be00d4
:1031e000b4a79f00c5a79f00d6a79f00e7a79f0091
:1031f0000802be000a03be00480807000004be0023
:103200000205be007fa097008fa89700fd0607006b
:103210000002be000203be003fa09700cfa09700af
:103220005fa19700efa197003c0807000002be00d5
:103230000203be001fa89700afa897003fa9970000
:10324000cfa997003b0707000802be000a03be0093
:10325000380707001faa9700afaa97003fab970057
:10326000cfab97002d0707000004be000205be008b
:103270006022b8006033b800bb0607000000e00021
:1032800002003a0020022000008a88005faa97000e
:103290000800be000a01be00640d07004f07780059
:1032a0004f06be004f05be004f04be000f04b10024
:1032b00000000600cf23b000889fbe008a9fbe009a
:1032c0008c9fbe008e1f78000004780001007800fb
:1032d000b2a79f00e39f9f0094af9f0085057800f1
:1032e0008006eb000a003700f808900038109000c4
:1032f000808f5000030031003180fb00710c98007a
:103300000200370008007800a50507001d00200016
:1033100001032000810f5000f3ff32000006eb0094
:103320006022b8006033b80094b79f00a5b79f0033
:10333000b6b79f00c7b79f00e1022000810f500081
:103340002a003a00f808900038109000808f500052
:10335000090031003180fb00710c98006022b80038
:103360006033b80094b79f00a5b79f00b6b79f0021
:10337000c7b79f00190037000800780088050700cc
:10338000f6ff37001fb09700afb097003fb197002e
:10339000cfb1970061005000e080580060015900f3
:1033a000e081590090b79f00a1b79f00b2b79f007e
:1033b000c3b79f00f808900038109000808f50002d
:1033c000030031003180fb00710c980002003700cf
:1033d00008007800720507001d002000010320008e
:1033e000810f5000e7ff32001c0020006011b80080
:1033f000c29f9d00d39f9d008004eb006022b80017
:103400006033b800d4af9f00e5af9f00f6af9f00d8
:1034100087b79f0009077800090578005200370038
:10342000810f50000c003a000c00e00058003a00f8
:103430005fa89700efa897007fa997008fb197002a
:1034400090b79f00a1b79f00b2b79f00c3b79f007e
:103450001c0020003b003700010320005faa9700fa
:10346000efaa97007fab97008fb3970061024200ed
:10347000e0824a0060034b00e0834b00d4af9f0022
:10348000e5af9f00f6af9f0087b79f00c3072000fe
:10349000830f570023003c00810f500001003200d1
:1034a000dfac9700c276dd000a00e00011003200b8
:1034b00085db2f008f8242008d8642006102b900b9
:1034c0000403b1000580b100a20020000300200029
:1034d0001d00be00d4b79f00e5b79f008906070016
:1034e0005fb29700efb29700801e420081964a00bb
:1034f0000500370086db2f000f0343008d064300d5
:10350000cf91de00828ebe000a05e8001d0020007b
:10351000e90f55000b003a000d0747000005eb00ce
:1035200008003700810f5000060032004f909700ce
:10353000df9097000000a000c0979f00d1979f00e8
:10354000c9452000f808900038109000808f500086
:10355000030031003180fb00710c9800020037003d
:10356000080078000e05070002fd2f000001410051
:10357000e1022000e90f5100a9ff3600810f500041
:10358000a9ff32000c00e000030032000a003700ff
:10359000e0022000080037005faa9700efaa97001a
:1035a0007fab97008fb3970094b79f00a5b79f009c
:1035b000b6b79f00c7b79f000d00e000290032009a
:1035c000000178000250a00051062000810f510038
:1035d00024003a008b00780008007800e2fb070026
:1035e0006022b80006002000070028000400e10067
:1035f0000588e1000690e1000798e1000c003a0020
:103600000b00e00023003200381290006000b80088
:103610006011b8000400e000050032007808900056
:103620000000e900700c98006000b8006011b8005c
:103630001fb29700afb297003fb39700cfb3970088
:103640000002420081824a0002034b0083834b0048
:1036500094b79f00a5b79f00b6b79f00c7b79f005c
:10366000130037000000e00006003500381090001d
:103670000000e00003003200780890000000e9003c
:10368000700c98000d00e00009003a006001200075
:10369000008a88006022b8006033b8000800780013
:1036a0009a0407006000b8006011b8007803370082
:1036b0004f9e9500df9e9500e00f5600e08f5e0064
:1036c00007003a009faa97006128b90004f7070095
:1036d0006011b800ebf80700a80507006c0337007d
:1036e0001fb09700afb097003fb19700cfb19700e0
:1036f0005faa9700efaa97007fab97008fb3970060
:103700000400e1000588e1000690e1000798e1006f
:1037100020003a0090002000010020006011b80055
:103720001fb29700afb297003fb39700cfb3970097
:103730000020e10001a8e10002b0e10003b8e100cf
:1037400014003c00bfa29700fe8f52000a003c000c
:103750000c00be00050378000603e90003003300f7
:103760008100d1000080d300fbff3700e00f500044
:10377000e08f580007003a009fab97006138b9000e
:103780009d0507000004be000205be000c00be003f
:1037900060003700220020006f9e9700050009009e
:1037a0000206d8000000ea00cf80de006109b900ff
:1037b0001fb29700afb297003fb39700cfb3970007
:1037c0000020e10001a8e10002b0e10003b8e1003f
:1037d0000f00340020022000008a88009faa970072
:1037e0006128b90084050700f4ff2f00f5ff2f00c2
:1037f000f6ff2f00f7fe2700c8060700f4ff2f0092
:10380000f5ff2f00f6ff2f00f7fe27008e00370090
:103810006f9b970067f92f0007004300cf80de0001
:103820006109b9001fb29700afb297003fb397008c
:10383000cfb397000020e10001a8e10002b0e10051
:1038400003b8e1000d003d0020022000008a88003e
:103850009faa97006128b900670507006022b80099
:103860000600200007012000ac0607006022b80017
:103870000600200007012000730037000a00e00066
:103880000e0032000a0037004274dd0086db2f0094
:103890000f03430008044300a2002000030020009f
:1038a0001800be0097050700008cbe000a05e8005e
:1038b000e80f5500f4ff34000e07e8009fb39700af
:1038c000e88f540002003c00878f5400050034004c
:1038d0004270dd008cdb2f000f0646000000460022
:1038e0005c0037009fb69700f18f5600f8ff3c0050
:1038f000e98f560009003a001fa997006110b9002e
:103900003d0507000004be000205be004f9895006b
:10391000df9895003b050700470037009fb19700ef
:10392000e88f51001c003c001faa97006120b900dd
:10393000310507000004be000205be004f98950047
:10394000df9895002f0507000002be000203be00ad
:103950000800be000a01be00700607000004be0099
:103960000205be009fb29700688012004200dd0091
:10397000410e2100008040001000be001e0507001f
:103980000002be000203be000800be000a01be0025
:10399000b3050700be0237003fa397007b0043003a
:1039a000d2ff2f009fb3970082b9b90002014000f7
:1039b000fe0f51000a003c004f989500df989500db
:1039c0000201e900030033008100d1000080d30030
:1039d000fbff3700e00f5000e08f5800bcff3a00bb
:1039e0001fae97006160b900030507000004be0028
:1039f0000205be004f989500df989500010507006d
:103a00000002be000203be000800be000a01be00a4
:103a1000420607000004be000205be009fb69700e4
:103a20006a8056004200dd00410e21000080400007
:103a30001000be00f00407000002be000203be003a
:103a40000800be000a01be003406070090023700dd
:103a50000e07e9004001be00e00f5100e08f590061
:103a6000fbff3200940020009fb097000500090082
:103a70008400d800010278000001eb00d2af9f0063
:103a80000400e000520032009fb197000300e00004
:103a900001003d0069024200680012004200dd00a2
:103aa000410e2100008040001005be0046db2f00c3
:103ab0000f0343006044b8008002eb00d5af9f00c5
:103ac000c4a79f000800be008504780006047800a3
:103ad0000002be002d0037005806be000a01be00dd
:103ae0000c00be00d4b79f00e5b79f00f2040700aa
:103af0005fb29700efb2970004034000858348004f
:103b0000068cbe000a01be0000a02c00a1b9230053
:103b1000f6b79f0087bf9f00840407000002be0025
:103b20000a01be000c00be00d4b79f00e5b79f009d
:103b3000f10407000001be005fb29700efb29700ea
:103b40000400be00ef0407000002be000900e80008
:103b50007fb397008fbb97005fae97008c8f5400a8
:103b600009003a00e00f5300e08f5b0006003a00c6
:103b700080067800fd07b200ddaf9f009fb0970080
:103b8000e980500091b79f00800478008e8f540028
:103b9000d1ff3a000404be004fa29700e00f54008a
:103ba000e08f5c00060032004270dd0082db2f00f7
:103bb0000f014100000041000888be000e07e80028
:103bc000690212009fb197008481410093b79f0062
:103bd0000002eb00c4a79f00dfae97006c00370027
:103be000cfa29700fd825200c5a79f000e06e900f4
:103bf000fc07b2006033b800d6af9f00e7af9f006c
:103c00004260dd0087db2f008f8343008083430009
:103c1000d7a79f001704be006055b800cd55dd0042
:103c20004348de008b0570004d4ddd004340de0053
:103c30000a057000cd44dd000004eb005fa9970089
:103c4000efa99700080441008984490060054d00f0
:103c5000e0854d0004a02c00a5b923006033b80016
:103c60000440e10005c8e10006d0e10007d8e1000a
:103c70000e0036000800be000a01be006107070002
:103c8000d0af9f00e1af9f0004a02c00a5b9230096
:103c90006033b8000800be000a01be0060070700dc
:103ca000dfa39700808bbe00050037005fa0970060
:103cb0000888be006011b800d2af9f00e3af9f003c
:103cc0000e00e900f007b200800f56000b003a002a
:103cd0008d0f56000e0032004260dd0083db2f00a6
:103ce0008f814100008041001000be00e00f5000b5
:103cf000e08f5800ed013200020037008d0f5600b2
:103d0000030032000c06e900fc07b200bcff3700dc
:103d10005faa9700efaa9700e00f5200e08f5a00c9
:103d20001b0032009fb29700e982420095b79f00c6
:103d30008d06e900fd07b2008e8f56000d003a0097
:103d40000d07e900fe07b2000e00e900f007b2001f
:103d50004200dd0086db2f000f034300000043001c
:103d6000c270dd00810043001001be0031187100f7
:103d7000219071004268dd0083db2f008f814100bc
:103d8000008041005faa9700efaa97000488be0058
:103d90009fb29700f18f520091ff3400f28f5200d2
:103da00009003a004269dd0086db2f000f03430063
:103db00002014300e005270091082000b20f100027
:103dc000a28f180086ff36008d03780002102100b4
:103dd0000000eb0087004000f107b2008e8f50001a
:103de0000d003200c208dd0083db2f008f8141000f
:103df000818041001104be005202be00840f5400b5
:103e0000858f5c00040039000d003e000000e800d2
:103e1000e20f5000efff3a001fb29700f20f52007e
:103e200007003a00d7af9f006044b8006055b80063
:103e30008006eb000800be000a01be0067003700e4
:103e4000990020009fb29700fb8f520001003c00b8
:103e5000190020004fa3970009034300c6a79f0045
:103e6000100020000900dd000000e9006101b90038
:103e7000d2a79f00e3a79f000aa02c00abb92300a4
:103e8000890178008301e900030033008b85d100ac
:103e90000a85d300fbff3700070478006000b800f4
:103ea000d0af9f00e1af9f000a02be001fb5970090
:103eb000870578002d003700c240dd0086db2f002b
:103ec0000f034300810043001101be000203be0046
:103ed000090678000c06e900030033008703d100cf
:103ee0000683d300fbff37005fae9700efae97006d
:103ef0000603460087834e008688be006fa09700a9
:103f000083066000dfa09700028660000401be0007
:103f10000c00be00d4b79f00e5b79f00f6b79f0026
:103f200087bf9f00f7030700d0af9f00e1af9f005e
:103f30000800e8005fb29700efb297007fb39700e8
:103f40008fbb97008b0f540006003a00e00f530020
:103f5000e08f5b0003003a0080057800fb07b200a9
:103f60006905550000047800f807b2008e0f540070
:103f7000d1ff3a008b0378009ab79f005fa89700a3
:103f8000efa89700e00f5000e08f58008fff32003d
:103f90000e01e800f207b200870f5100070032005f
:103fa0004277dd0083db2f008f8141000e874100c7
:103fb000008fbe000207780084ff37000e00e90082
:103fc000f007b2004200dd0084db2f000f02420048
:103fd000000042001000a0007cff3700dfaa97001d
:103fe00005864600fc07b2008e0f560009003a0015
:103ff0000e07e800fe07b2000e02e9004222dd00d3
:1040000086db2f000f03430004024300000aeb008d
:10401000341278006022b80056d62c00d71c240039
:10402000be0407000004be000205be004266dd00bb
:1040300087db2f008f8343000c8643001c00be00eb
:10404000700307000002be000203be000800be00ad
:104050000a01be00b70307008d06e800e28f560094
:10406000deff3a000004be000205be001fae97004e
:104070006160b900600307000002be000203be00d9
:104080000800be000a01be00a40407000002be0032
:104090000203be00d4a79f00e5a79f00f6a79f00dc
:1040a00087af9f00cfa297005503b000c59f9f0028
:1040b0006f9b970006835200d69f9f00bfa3970077
:1040c000868f5300060034000600e0000b00350028
:1040d000060678001d0020009db79f0003003700f2
:1040e0003fa697000000eb0090b79f004003200020
:1040f000800f560037003c000300370011002000fd
:1041000091b79f000006eb00920620000c015100c1
:104110000000200001f823009a0907001703070098
:104120005fa29700efa297007fa397008fab970045
:10413000d80707000002be000203be00f49f9f00e4
:1041400085a79f0096a79f00a7a79f005203200066
:104150000c0151000000200001f82300890907002c
:10416000060307000002be000203be005fa0970026
:10417000efa097007fa197008fa99700eb0707009a
:104180000004be000205be000002be000203be0025
:104190005fa09700efa097007fa197008fa99700dd
:1041a0005e0307007f9a97008fa297001fa39700d6
:1041b000afa397005f0307000002be000203be002a
:1041c000d4a79f00e5a79f00f6a79f0087af9f0099
:1041d000080037006000b8006011b800f09f9f0031
:1041e00081a79f0092a79f00a3a79f000004be0085
:1041f0000205be00dfa897000180e800f007b200ca
:104200008e0f50004e0032004200dd0082db2f0096
:104210000f014100000041001001be00f04f2600d8
:10422000d1dc2100800f5100818f59000e003e002b
:10423000e00f5100e08f590005003a00dfa9970018
:1042400063804100f007b2008e0f5000250032005d
:104250001faa97006120b90021f407000200200086
:1042600003e823001600370000502600d1dc2100af
:10427000800f5100818f5900030032009faa9700e0
:104280006128b9000b0037005fab97006301430062
:10429000f207b2009fab97006138b9008e0f510052
:1042a00004003a000ef407000200200003f023008f
:1042b000030037000af407000200200003f4230083
:1042c000f0f50700ad0207000002be000203be00c9
:1042d0000800be000a01be00160307000004be006d
:1042e0000205be00500320000c005000e10f5000fa
:1042f000130034006022b8000600200007ff2300ee
:104300000800be000a01be00880707006022b8004e
:104310006033b800940207000000e00008003a0093
:104320006022b8000600200007ff23000800be003e
:104330000a01be00ff0207000004be000205be0025
:104340003fa09700e3061000ef9897008186560083
:104350000802be000a03be005fa09700efa097000e
:104360007fa197008fa99700f20207007f9a97001c
:104370008fa297001fa39700afa39700e702070043
:104380000002be000203be0094af9f00a5af9f00d5
:10439000b6af9f00c7af9f0064805600cf989700cc
:1043a00001f0a100810f500033003c000400be006a
:1043b000520707006022b8000600200007342400de
:1043c000550207000000e0001b0035009fb2970077
:1043d0000500e000070032005f9b970006066e00b4
:1043e0000cf0a7000c06ea000c06ea004f66de009f
:1043f0009cb79f006022b8000600200007fe230043
:104400001fa89700afa897003fa99700cfa99700d2
:10441000c20307000002be000203be0094af9f006b
:10442000a5af9f00b6af9f00c7af9f00cfa2970078
:104430008502e800c5a79f004fa097004003b00089
:104440008d0f50000a003d001fb397000600e000ea
:10445000090032006022b8006033b8000800be00d6
:104460000a01be00400207000000e0000200320026
:1044700020022000008a88004fa297001fa8970002
:10448000afa897003fa99700cfa99700e7080700ba
:104490004f0778004f06be004f05be004f04be0018
:1044a000ef1fb100ef03b100000006000c07780019
:1044b00014fe3700e4874700889fbe008a9fbe0035
:1044c0008c9fbe008e1f78000004780002077800e1
:1044d0000100e000fa003500bbf62f008a01200041
:1044e000e18f500004003400e28f5000f4003a00e5
:1044f000ebbc2f005a03200078089000b810900001
:10450000810f500003003100b084fb00700c980054
:1045100003003700080078002101070080047800bc
:104520000900780006f807000000e000f2ff3a00fa
:10453000b0022000808f5400060032001c002000d2
:10454000d0022000808f54000e003a002c00200082
:10455000010037000006eb006106160078089000a5
:10456000b8109000810f500003003100b084fb00b0
:10457000700c98000300370008007800080107005d
:1045800080047800510d21008006eb0011003700f7
:10459000e78f56000c003200780890003811900028
:1045a000820f500003003100b084fb00700c9800b3
:1045b000050037000800780081bf9f00f800070061
:1045c000800478008fb897008d06e800e88f5600c9
:1045d0001f003200090178000250a0005100fb00ca
:1045e000800f5100eaff32000d007800e38f560083
:1045f00006003200e88f560015003200e38f5600a7
:10460000190036000e00e000bd003200b810900026
:104610000100e00003003200780990000201e90087
:10462000720c98000e00e00009003200060037000e
:104630000100e00003003200780990000201e90067
:10464000720c98000000e900e30f5000f8ff3a00f8
:10465000e10f46009d003a006000b8000200200013
:1046600003ff2f00a0003700e10d21000d00e00046
:1046700012003200a2003700e28f56000c00320018
:104680007808900038119000820f5000030031002c
:10469000b084fb00700c980005003700080078001b
:1046a00081bf9f00be000700800478008fb897008c
:1046b0008d06e800e38f56000600320009017800fd
:1046c0000250a0005100fb00800f5100eaff3200b1
:1046d0008b003700f808900038109000808f500051
:1046e0000700310080c2b300314068000080fb0049
:1046f0000000ea004f00de00710c98000700370050
:1047000008007800a60007008082b20000f0a70031
:104710000000ea000000ea004f00de00190020005f
:104720000004e00007003200381090000000e000b4
:104730006a003200780890000000e900700c9800d0
:1047400066003700f808900038109000808f500005
:10475000030031003180fb00710c9800020037002b
:10476000080078008e00070001fd2f0080804000c7
:10477000e98f50000b003600f1fb2f0080804000d5
:10478000f98f500007003600f1f92f0080804000bb
:10479000f98f500003003600f1052000810f500012
:1047a00002003a008904e800e6ff37009102200089
:1047b000810f500049003200381090000000e000e6
:1047c00003003200f80890008100e900710c9800a5
:1047d0000e00e00007003a000f0037000000e00084
:1047e00003003200f80890008100e900710c980085
:1047f0008904e9000900e000f8ff3a0037003700bb
:10480000381090000000e0000300320078089000ab
:104810000000e900700c980060012000008a880008
:104820006022b8006033b800080078003700070045
:104830002300370000032000808f54001a003a0044
:10484000f808900038109000808f5000030031006d
:104850003180fb00710c98000200370008007800de
:104860004f0007000050a00081072000810f50007a
:1048700007003a000e0278008c0178000b017800e6
:104880008a00780008007800f1f70700160037006a
:10489000381090000000e00003003200780890001b
:1048a0000000e900700c98008e0278000c0278007d
:1048b0000a01be000800be007efa07000a003700a9
:1048c0006000b8006011b800070037006000b80051
:1048d0000200200003ff2700030037006000b8003b
:1048e0000200200083ff27004f0778004f06be001c
:1048f0004f05be004f04be004f00b100000006008f
:104900000d00e000beff3a00caff3700889fbe00de
:104910008a9fbe00441098005510980066109800b9
:1049200077109800f00890002004900001045400d3
:10493000cfc4de00614db90008189800191898001e
:104940002a1898003b189800e00f5200e08f5a0098
:10495000e00f5b00e08f5b000c0032000014900061
:1049600001045400cfc4de00614db9000440e100f1
:1049700005c8e10006d0e10007d8e10003003400db
:10498000048240003410980002003700801090002c
:10499000311098004f05be004f04be000000060015
:1049a0002800fa00889fbe008a1f78000004780063
:1049b000f80890002800900000805000081a90002d
:1049c000981a9000281b9000b81b9000cf80de0042
:1049d000040240008582480006834800878348001f
:1049e00048109000d810900068119000f8119000c5
:1049f000e00f5000e08f5800e00f5900e08f5900a1
:104a0000050032000020e10001a8e10002b0e10051
:104a100003b8e1000d003d0008007800d4b79f0006
:104a2000e5b79f00f6b79f0087bf9f00740007009f
:104a3000800478005fb29700efb297007fb39700d1
:104a40008fbb97000900e00016003d007808900039
:104a5000a8009000808050004f89de000482400052
:104a6000850249000603490087034900041c980099
:104a7000151c9800261c9800371c980030149800cc
:104a8000f0ff2f00f1ff2f000001be00401498003e
:104a90005114980062149800731498008084eb00fd
:104aa0005200370061004200e0804a0060014b0084
:104ab000e0814b0090bf9f00a1bf9f00b2bf9f004d
:104ac000c3bf9f0048129000d81290006813900056
:104ad000f813900094b79f00a5b79f00b6b79f004a
:104ae000c7b79f00e00f5200e08f5a00e00f5b0055
:104af000e08f5b0028003200780d900008119000d4
:104b00000a0151006112b900612bb900d4af9f00b6
:104b1000e5af9f00f6af9f0087b79f001fb09700db
:104b2000afb097003fb19700cfb197001fba970081
:104b3000afba97003fbb9700cfbb9700040050006f
:104b400085805800060159008781590090af9f0069
:104b5000a1af9f00b2af9f00c3af9f005faa9700b5
:104b6000efaa97007fab97008fb397000020e1007a
:104b700001a8e10002b0e10003b8e1000600340042
:104b80009fb297001fbb970006815200820045002c
:104b900031149800020037008813900037149800f1
:104ba00028019000f8089000810151001fba970079
:104bb000afba97003fbb9700cfbb97004f98de007e
:104bc000048241008502480006034800870348002c
:104bd000041c9800151c9800261c9800371c98008f
:104be000828f500001003e00f9f89f000900780014
:104bf0004f0578004f04be000080fa000000060058
:104c00000200fa00889fbe000004780008007800c7
:104c1000100007008084eb000000e00009003a006b
:104c20009811900012002000e680570008007800dc
:104c300003000100e10f500002003a002ff8970036
:104c40008084fb00090078004f04be000080fa0059
:104c500000000600881f780000047800486090007b
:104c60008040e90000c0700040649800d8009000c7
:104c700068009000808f500005003600b809900051
:104c80000001eb00820078000800780003000100ba
:104c90000000eb00200c980060049800500498007d
:104ca000980090000118a300030032000140a0000a
:104cb0001104980008003700280190003800900087
:104cc0000000410000149800700c98000000eb00f8
:104cd0000138a300010032000080eb004f0478008f
:104ce000000006000200370000000600000005007a
:104cf000fdff0700108a80008000eb00fbff07002b
:104d0000108a80008000eb00f8ff0700108a800006
:104d10008000eb00f5ff3700809feb00cb0307001e
:104d20008f87e9000000e00000000600839f680014
:104d30000100e00002003d0060001000e08018006b
:104d40000300e00002003d0060011100e081190055
:104d5000590007004f00e00002003b006000100017
:104d6000e080180000000600801feb00b70307007a
:104d70008f87e9000000e000000006008103780052
:104d80005ef107000001be006000b8000478a300d7
:104d900013003a006220e10015003e000d003900ca
:104da0008301d1000281d3008180d3008301d1002f
:104db0000281d3008180d3008301d1000281d3001e
:104dc0008180d3000538b000c42add00f300b200b2
:104dd0008381720007f0a70003f0a0000000060026
:104de00083ff2700020020006110b900f9ff37009f
:104df00003ff2700f7ff37004f89de0082017800ac
:104e00000d0437006011b8001b0437001400fa00cd
:104e1000889fbe008a9fbe008c9fbe000005be001a
:104e20000206be00680047000c90be000a90be005b
:104e3000c10307006400e1001a00320016003e00c2
:104e40006100e1001a0032006e049000fe04900040
:104e50000e0b90009e0b90006011b8009e05900014
:104e60000b38b100d501200082817100610164001e
:104e70008703d1000683d3008984d3000884d3003c
:104e80008502e900f8ff3a00e0f407000df0a70002
:104e900001f0a000e303370001fc27000000200020
:104ea000faff370001f8270000002000f7ff370065
:104eb0006000b800f5ff37006022b800060220004d
:104ec0000000d0008180d2000482d2008582d2000e
:104ed0000000a0000202520083825a000300310049
:104ee0000202420083824a000000a1000603e9009a
:104ef000f3ff3a0000000600efff07000400be00c9
:104f000000000600020ab900001bb9000200b80048
:104f10008100420081004300000006008c9fbe001b
:104f20008a9fbe00889fbe00ca0107000bf0a20046
:104f3000040037008c9fbe008a9fbe00889fbe0081
:104f4000c40107000c48e1000b003a000c40e100ee
:104f5000020032008b010700400037008b066d0015
:104f60003e0032000af0a100f3012000f2ff2f0002
:104f70006110b900390037000c40e1003700320001
:104f80000940e100010036007e0107008a856d00be
:104f9000cf5dde000b0575000006eb008804fd0008
:104fa00089045400010032007d0107000a04e0007a
:104fb00011003a000800e000280032000400400020
:104fc0008580480006014900878149000358a300f5
:104fd000180032008301d1000281d3008180d30008
:104fe0000080d3000c86d3000100390061067600f2
:104ff0000804e800180037000400500085805800bd
:105000000601590087815900060031000af0a2000c
:105010000c06ea0060001800e0801800600119002a
:10502000e081190003003a000004eb000005eb00ea
:105030000a0037000348a30007003a000c064600a8
:105040000000480081804800020149008381490036
:105050000804e900f7ff3700af013700c901370046
:105060008c9fbe008a9fbe00889fbe00790107000a
:105070000b056d000940e1000a003a000800e0005d
:10508000020032000c40e10006003a000af0a100e4
:105090000c047800f3012000f2ff2f006110b9002a
:1050a0009d0037000c40e1009b0032000800e0004a
:1050b000990032000c48e10002003a000004eb00c5
:1050c000030037000900e00004003a000c047800f7
:1050d0006000b8006011b8008f0037000348a300db
:1050e00006003a00000040008180480002014900ab
:1050f000838149000804e900f8ff37000748a3004e
:1051000006003a000402420085824a0006034b0072
:1051100087834b008904e900f8ff3700fd3f20003a
:105120008d845400090454008a1f7800881f780079
:105130000004780081047800020578008305780077
:105140006000b8006011b8000d04200005003700b1
:105150000804440089844c000a054d008b854d00ed
:10516000080031000404540085845c0006055d00dd
:1051700087855d008381d2008d06d300f4ff3b005c
:10518000070037000404440085844c0006054d00e8
:1051900087854d008381d2008d06d300ecff3b0054
:1051a0000804440089844c000a054d008b854d009d
:1051b000080031000404540085845c0006055d008d
:1051c00087855d000281d2008d06d300f4ff3b008d
:1051d000070037000404440085844c0006054d0098
:1051e00087854d000281d2008d06d300ecff3b0085
:1051f0000804440089844c000a054d008b854d004d
:10520000080031000404540085845c0006055d003c
:1052100087855d008180d2008d06d300f4ff3b00be
:10522000070037000404440085844c0006054d0047
:1052300087854d008180d2008d06d300ecff3b00b6
:105240000804440089844c000a054d008b854d00fc
:10525000080031000404540085845c0006055d00ec
:1052600087855d000080d2008d06d300f4ff3b00ef
:10527000070037000404440085844c0006054d00f7
:1052800087854d000080d2008d06d300ecff3b00e7
:105290000b00e00004003d000404440085844c0041
:1052a00006054d0087854d000006eb008301d10007
:1052b0000281d3008180d3000080d3000c86d3000c
:1052c0008301d1000281d3008180d3000080d3000c
:1052d0000c86d300890474008b0575008b847400e0
:1052e00001003200610676004f0478004f05780017
:1052f0000348a30007003a000c06460000004800df
:105300008180480002014900838149000804e900c6
:10531000f7ff3700000137001a0137008c9fbe00ed
:105320008a9fbe00889fbe00ca0007000b056d0063
:105330008a0578000c40e10008003a000900e0000e
:1053400082003a000af0a1000c047800f30120006a
:10535000f2ff2f006110b9007c0037000c48e1001b
:1053600004003a00870007000900e00077003a00d7
:10537000f4ff37000800e000740032000900e0008c
:1053800002003a007f00070070003700ed3f200068
:105390008d845400090444008a1f7800881f780017
:1053a000871f7800861f7800851f7800841f78008b
:1053b000cb19dd00c515de008b8571004b11dd00ba
:1053c000450dde000a057100cb08dd00c504de00d6
:1053d000898470004b04dd000440b8000546b80025
:1053e0008c80400060814e00044eb8008c804000ec
:1053f0000d0149008001eb000318ad000456b80010
:105400000c0141008d8149000002eb000420ad0039
:105410000646b8000c0141008d81490060024a0037
:10542000054eb8000c0141008d81490060024a0020
:105430000556b8008c8141000d024a008002eb0045
:105440000528ad000746b8008c8141000d024a00d6
:10545000e0824a00064eb8008c8141000d024a00ed
:10546000e0824a004f0678000c5eb8008c81410053
